:020000040000FA
:100000002129FF3FFF3FFF3F0900FF3FFF3FFF3F29
:100010004F344E344534633468346934703420349A
:100020007834FF343634323439342034FF3FFF3FE4
:10003000FF3FFF3FFF3FFF3FFF3FFF3FFF3FFF3FD0
:10004000FF3FFF3FFF3FFF3FFF3FFF3FFF3FFF3FC0
:10005000FF3FFF3FFF3FFF3FFF3FFF3FFF3FFF3FB0
:10006000FF3FFF3FFF3FFF3FFF3FFF3FFF3FFF3FA0
:10007000FF3FFF3FFF3FFF3FFF3FFF3FFF3FFF3F90
:100080000330A800FF30A70000343230A300C8308E
:10009000A400851EA701A40B4928A30B4728003400
:1000A0008316FD3085008312F930850000348316F5
:1000B000FF3085008312FF30850000348316FD3049
:1000C00085008312F9308500043046288316FD3000
:1000D000850083120430A3006930A400FB30051DA5
:1000E000F9308500851EA701A40B6E28FB30051D85
:1000F000F93085000000A30B6C280034A601043001
:10010000A1002A18902840201230AB00043046206D
:10011000A80B8D282718B8284020AB0B86289428D8
:1001200048304620FF30A8002608B920A500A509C0
:100130000930A2009E28A50C031CA0286620A22836
:100140005E200000A80BA7282718B8284020A20B83
:100150009B285E20A80BAF282718B82840205E20D7
:10016000A80BB5282718B8284020A60AA10B942868
:1001700000348207533443344534453464304620D8
:100180001930AB00051CD728643046205020051CD0
:10019000D728643046205720AB0BC22850200518C2
:1001A000CF288316FF30850083120000D528502009
:1001B0001E30A0004520A00BDA28F93085008316F8
:1001C000FD30850083120730A0004520A00BE528F4
:1001D0002230A900ED281830A90050200518EE287B
:1001E000FF30AA007E200518EB28A90BF22850202A
:1001F000AA017E2050200518EB28F9281430AC0005
:100200004520AC0B0029851D032905121D30AD00CA
:100210004520AD0B0829851D0B29000000000000BA
:1002200000000000000000008316EF3085008312FC
:1002300000000000000000008316FF3085008312DC
:10024000BE28FF2383169000FF3085008230810096
:100250008312FE28FF3FFF3FFF3FFF3FFF3FFF3F6F
:10026000FF3FFF3FFF3FFF3FFF3FFF3FFF3FFF3F9E
:10027000FF3FFF3FFF3FFF3FFF3FFF3FFF3FFF3F8E
:10028000FF3FFF3FFF3FFF3FFF3FFF3FFF3FFF3F7E
:10029000FF3FFF3FFF3FFF3FFF3FFF3FFF3FFF3F6E
:02400E00C43FAD
:08400000FF3FFF3FFF3FFF3FC0
:00000001FF
